:020000040000FA
:0400000007EF00F016
:10000800588296ED10F01FEF11F0000E9DEC11F0E4
:10001800536E050E5318D8B414EF00F016EF00F025
:100028001FEF00F0060E5318D8A41DEF00F01FEFC5
:1000380000F027EF00F0010E3926000E3A223B228D
:100048003C2253C052F03C503B1009E1F40E395C9D
:10005800010E3A58D8B033EF00F035EF00F023EF37
:1000680001F05328D8A43BEF00F03DEF00F023EF58
:1000780001F0060E5218D8A444EF00F046EF00F045
:10008800EAEF00F041044210D8A44DEF00F04FEF22
:1000980000F07CEF00F00001AC4BAD2B3C0EAC192E
:1000A800AD11D8A45AEF00F05CEF00F060EF00F05B
:1000B800000EAD6F000EAC6FACC001F0ADC002F029
:1000C800000E046E0A0E036EDAEC11F00150300FC8
:1000D8000001D76FACC001F0ADC002F0000E046E95
:1000E8000A0E036E14EC12F00150300F0001D86FA5
:1000F800020E41184210D8A484EF00F086EF00F0F9
:10010800B3EF00F000019C4B9D2B3C0E9C199D11F8
:10011800D8A491EF00F093EF00F097EF00F0000EF5
:100128009D6F000E9C6F9CC001F09DC002F0000EF8
:10013800046E0A0E036EDAEC11F00150300F000164
:10014800D46F9CC001F09DC002F0000E046E0A0E30
:10015800036E14EC12F00150300F0001D56F030E3E
:1001680041184210D8A4BBEF00F0BDEF00F0EAEF51
:1001780000F000019A4B9B2B0D0E9A199B11D8A4E5
:10018800C8EF00F0CAEF00F0CEEF00F0000E9B6F52
:10019800000E9A6F9AC001F09BC002F0000E046E28
:1001A8000A0E036EDAEC11F00150300F0001D16F26
:1001B8009AC001F09BC002F0000E046E0A0E036E96
:1001C80014EC12F00150300F0001D26F050E5218D6
:1001D800D8A4F1EF00F0F3EF00F002EF01F0425085
:1001E80007E1030E415CD8B0FCEF00F0FEEF00F031
:1001F80002EF01F0414A422A19EF01F0050E5218A8
:10020800D8A409EF01F00BEF01F019EF01F0030E8C
:1002180041184210D8A413EF01F015EF01F019EFBF
:1002280001F0000E426E010E416E000E526E000E7D
:10023800396E000E3A6E000E3B6E000E3C6E0001E9
:1002480096519711D8B42BEF01F02DEF01F03BEF49
:1002580001F0000E6C6F000E6D6F000E6E6F000ED9
:100268006F6F41C098F042C099F03FEF01F0000E67
:10027800996F000E986F98059911D8A446EF01F070
:1002880048EF01F052EF01F0E20E0C6E7E0E0D6E9B
:10029800CA0E0E6EDDEC10F081EF01F0020E981917
:1002A8009911D8A45AEF01F05CEF01F066EF01F064
:1002B800E20E0C6E7E0E0D6EC70E0E6EDDEC10F0AB
:1002C80081EF01F0030E98199911D8A46EEF01F08F
:1002D80070EF01F07AEF01F0E20E0C6E7E0E0D6EFB
:1002E800C40E0E6EDDEC10F081EF01F0D10E0C6E35
:1002F8000D6AC40E0E6EDDEC10F0EC0E0C6E7F0E67
:100308000D6E840E0E6EDDEC10F03C503B100BE1D0
:10031800F50E395C010E3A58D8A095EF01F097EF29
:1003280001F02CEF02F0060E5218D8A49EEF01F04F
:10033800A0EF01F0C8EF01F0010EF7EC12F0000E8B
:100348004E6E000E4D6E000E526E000E0001996F3B
:10035800000E986F000E426E000E416E010ED06FB7
:10036800000E396E000E3A6E000E3B6E000E3C6EAB
:10037800000E9B6F000E9A6F000E9D6F000E9C6F13
:10038800000EAD6F000EAC6F050E5218D8A4CFEF5B
:1003980001F0D1EF01F02CEF02F0010EF7EC12F0B2
:1003A800A50E0C6E7F0E0D6E820E0E6EDDEC10F03B
:1003B800C00E0C6E7F0E0D6EC20E0E6EDDEC10F0D0
:1003C800FA0E126EFF0E136E0F0E146E000E156EDF
:1003D8001206000E135A145A155A125013101410FC
:1003E8001510D8A4FAEF01F0FCEF01F0ECEF01F0E2
:1003F800010EF7EC12F0000E506E000E4F6E0A0E52
:100408000001AF6F010EB06F000E4E6E000E4D6E04
:10041800000E526E000E996F000E986F000E426E1D
:10042800000E416E010ED06F000E396E000E3A6E4E
:10043800000E3B6E000E3C6E000E9B6F000E9A6F16
:10044800000E9D6F000E9C6F000EAD6F000EAC6F1E
:100458001200070E0C6E7F0E0D6E800E0E6EDDEC18
:1004680010F0DA0E0C6E0D6AC00E0E6EDDEC10F098
:10047800140E1A6EAE0E1B6E230E1C6E410E1D6EF0
:10048800040E99EC12F001C008F002C009F00A6AE3
:100498000B6A000E45EC0DF008C016F009C017F005
:1004A8000AC018F00BC019F0F0EC05F016C02FF0D8
:1004B80017C030F018C031F019C032F0C5EC0FF099
:1004C8002FC04BF030C04CF049044A10D8A46FEF4D
:1004D80002F071EF02F082EF02F04C5009E1140EC5
:1004E8004B5CD8A07AEF02F07CEF02F082EF02F0CA
:1004F800000E4C6E140E4B6E2CEF03F0020E4918D2
:100508004A10D8B48AEF02F08CEF02F09FEF02F0A5
:1005180049504A10D8B493EF02F095EF02F09FEFDC
:1005280002F0080E49184A10D8A49DEF02F09FEF78
:1005380002F0A5EF02F0000E4C6E000E4B6E2CEF91
:1005480003F0030E49184A10D8A4ADEF02F0AFEF3C
:1005580002F0C0EF02F04C5009E11E0E4B5CD8A02F
:10056800B8EF02F0BAEF02F0C0EF02F0000E4C6EE6
:100578001E0E4B6E2CEF03F0040E49184A10D8A437
:10058800C8EF02F0CAEF02F0DBEF02F04C5009E1CD
:10059800280E4B5CD8A0D3EF02F0D5EF02F0DBEFCA
:1005A80002F0000E4C6E280E4B6E2CEF03F0050E79
:1005B80049184A10D8A4E3EF02F0E5EF02F0F6EF8D
:1005C80002F04C5009E13C0E4B5CD8A0EEEF02F073
:1005D800F0EF02F0F6EF02F0000E4C6E3C0E4B6EA0
:1005E8002CEF03F0060E49184A10D8A4FEEF02F0CB
:1005F80000EF03F011EF03F04C5009E1500E4B5C93
:10060800D8A009EF03F00BEF03F011EF03F0000E91
:100618004C6E500E4B6E2CEF03F0070E49184A1023
:10062800D8A419EF03F01BEF03F02CEF03F04C50A4
:1006380009E1630E4B5CD8A024EF03F026EF03F02A
:100648002CEF03F0000E4C6E630E4B6E2CEF03F094
:100658000001B151D8B433EF03F035EF03F039EFAF
:1006680003F0000EB16FB6EC0EF05304D8A43FEFC0
:1006780003F041EF03F050EF03F0000E4A6E080E4E
:10068800496E000E4C6E000E4B6E010E0001B16FEC
:10069800000EB06FC8EF03F0020E5318D8A457EF3E
:1006A80003F059EF03F064EF03F04A5009E1070E35
:1006B800495CD8A062EF03F064EF03F077EF03F032
:1006C800020E5318D8A46BEF03F06DEF03F090EF10
:1006D80003F0080E49184A10D8A475EF03F077EF15
:1006E80003F090EF03F0080E49184A10D8A47FEFE2
:1006F80003F081EF03F087EF03F0000E4A6E020E5D
:10070800496E89EF03F0494A4A2A010E0001B16F88
:10071800000EB06FC8EF03F0030E5318D8A497EF7C
:1007280003F099EF03F0A4EF03F04A5007E1020E3B
:10073800495CD8B0A2EF03F0A4EF03F0B7EF03F0E1
:10074800030E5318D8A4ABEF03F0ADEF03F0C8EFD6
:1007580003F0080E49184A10D8A4B5EF03F0B7EF14
:1007680003F0C8EF03F0080E49184A10D8A4BFEFE9
:1007780003F0C1EF03F0C3EF03F081EF03F0490684
:10078800D8A04A0689EF03F00001B051D8A4CFEFF2
:1007980003F0D1EF03F007EF04F049C001F04AC0BD
:1007A80002F0000E046E030E036E28EC13F0780EB0
:1007B80001240C6E010E02200D6ECA0E0E6EDDECC9
:1007C80010F0CE0E086E4BC001F04CC002F0000EC7
:1007D800046E0A0E036EDAEC11F00150300FDBECF8
:1007E80012F0CF0E086E4BC001F04CC002F0000EA4
:1007F800046E0A0E036E14EC12F00150300FDBEC9D
:1008080012F01DEF04F0AF51030D780EF3240C6EB7
:10081800010EF4200D6ECA0E0E6EDDEC10F0CE0E39
:10082800086E300EDBEC12F0CF0E086E300EDBECEB
:1008380012F012000001CEBF2AEF04F0CE5108E1F9
:10084800CD05D8A02AEF04F02CEF04F09EEF05F0B8
:1008580048BE3AEF04F0485007E1040E475CD8B0B0
:1008680038EF04F03AEF04F0F8EF04F0CB51CC1174
:10087800D8B441EF04F043EF04F072EF04F0000E37
:10088800CC6F000ECB6F010EF7EC12F0F60E0C6E6B
:100898007E0E0D6E800E0E6EDDEC10F0C30EF7ECC2
:1008A80012F00F0EF7EC12F0640E8DEC13F000014D
:1008B800706F650E8DEC13F00001716F660E8DEC94
:1008C80013F00001726F670E8DEC13F00001736F67
:1008D800000E576E3C0E566E000E536E050E5318E2
:1008E800D8A479EF04F07BEF04F0A2EF04F04750AE
:1008F800740FD96EDA6ADF6A4750C30F086E2A0E82
:10090800DBEC12F04750700FD96EDA6A4750740F5B
:10091800E16EE26ADE50E618D8A495EF04F097EF8E
:1009280004F09AEF04F00001AA4BAB2B474A482A7F
:10093800000E576E3C0E566EEFEF05F0060E53187C
:10094800D8A4A9EF04F0ABEF04F0CAEF04F04750C5
:10095800740FD96EDA6A010EDF6E4750C30F086E46
:100968002A0EDBEC12F04750700FD96EDA6A475046
:10097800740FE16EE26ADE50E618D8A4C6EF04F000
:10098800C8EF04F09AEF04F097EF04F0575007E12E
:10099800360E565CD8B0D3EF04F0D5EF04F09CEFD8
:1009A80005F00C0EF7EC12F0010EF7EC12F0000E49
:1009B800506E000E4F6E000E486E000E476E000E11
:1009C8000001AB6F000EAA6F000E576E3C0E566EFC
:1009D800010ED06F000ECE6F030ECD6F000ECC6FE0
:1009E800010ECB6FEFEF05F0AA51471807E1AB51A5
:1009F8004818D8A402EF05F004EF05F052EF05F00F
:100A08000C0EF7EC12F0010EF7EC12F0390E0C6E2A
:100A18007F0E0D6E800E0E6EDDEC10F0880E0C6EE3
:100A28007F0E0D6EC00E0E6EDDEC10F0FA0E146E19
:100A3800FF0E156E0F0E166E000E176E1406000EC2
:100A4800155A165A175A1450151016101710D8A4FC
:100A580030EF05F032EF05F022EF05F0010EF7EC6C
:100A680012F0000E0001D06F000E486E000E476EA7
:100A7800000EAB6F000EAA6F000E576E3C0E566E3E
:100A8800000ECE6F030ECD6F000ECC6F010ECB6F34
:100A9800000E506E020E4F6EEFEF05F0CD07D8A096
:100AA800CE070C0EF7EC12F0010EF7EC12F0E50E83
:100AB8000C6E7E0E0D6E800E0E6EDDEC10F0D80EF4
:100AC8000C6E7F0E0D6EC00E0E6EDDEC10F0CA0EB1
:100AD800086E0001CD51300FDBEC12F0FA0E186EE3
:100AE800FF0E196E0F0E1A6E000E1B6E1806000E02
:100AF800195A1A5A1B5A185019101A101B10D8A430
:100B080088EF05F08AEF05F07AEF05F0010EF7ECB3
:100B180012F0000E486E000E476E000E0001AB6F1B
:100B2800000EAA6F000E576E3C0E566EF2EF04F0E0
:100B3800EFEF05F00C0EF7EC12F0D40E0C6E7E0EF3
:100B48000D6E800E0E6EDDEC10F0690E0C6E7F0ED1
:100B58000D6EC00E0E6EDDEC10F0CA0E086E56C09B
:100B680001F057C002F0000E046E0A0E036EDAECB4
:100B780011F00150300FDBEC12F0CB0E086E56C0AE
:100B880001F057C002F0000E046E0A0E036E14EC5A
:100B980012F00150300FDBEC12F056505710D8A469
:100BA800D8EF05F0DAEF05F0EFEF05F0000E486E2C
:100BB800000E476E000E0001AB6F000EAA6F000E0C
:100BC800576E3C0E566E000ECE6F030ECD6F000EA4
:100BD800CC6F010ECB6F12001950800B266E195086
:100BE80019242D6E18AEFBEF05F0FDEF05F0FEEFB2
:100BF80005F02D802D50D8B404EF06F006EF06F06E
:100C08001BEF06F02D28D8A40CEF06F00EEF06F027
:100C180016EF06F0000E166E000E176E000E186E18
:100C2800000E196E188E000E196E23EF06F0000ED6
:100C3800166E000E176E000E186E000E196E1D50FF
:100C4800800B261A1D501D242E6E1CAE2EEF06F0AA
:100C580030EF06F031EF06F02E802E50D8B437EF83
:100C680006F039EF06F04EEF06F02E28D8A43FEF35
:100C780006F041EF06F049EF06F0000E1A6E000E7E
:100C88001B6E000E1C6E000E1D6E1C8E000E1D6E5F
:100C980056EF06F0000E1A6E000E1B6E000E1C6E4C
:100CA800000E1D6E1A501B101C101D10D8A45FEFEB
:100CB80006F061EF06F079EF06F0000E166E000EF2
:100CC800176E000E186E000E196E800E18127F0E29
:100CD80019122650191216C016F017C017F018C0AE
:100CE80018F019C019F0BCEF07F02D50D8A47FEF09
:100CF80006F081EF06F08BEF06F0000E166E000E80
:100D0800176E000E186E000E196EBCEF07F02E500D
:100D18002DC01EF01F6A1E5E000E1F5A7F0E1E2475
:100D2800276E000E1F20286E16C022F017C023F071
:100D380018C024F019C025F0000E166E000E176EAC
:100D4800000E186E000E196E000E296E000E2A6E27
:100D5800000E2B6E000E2C6E000E2E6EECEF06F0C1
:100D68002E50D8B4BAEF06F0BCEF06F0D3EF06F079
:100D7800D8902236233624362536D890163617369C
:100D8800183619362CAECBEF06F0CDEF06F0CEEFC5
:100D980006F01680D89029362A362B362C361A506B
:100DA800225C1B5023581C5024581D502558D8A08D
:100DB800E0EF06F0E2EF06F0EBEF06F02C8C1A50AD
:100DC800225E1B50235A1C50245A1D50255A2E2A85
:100DD800190E2E64F2EF06F0F4EF06F0B4EF06F009
:100DE8002250231024102510D8B4FDEF06F0FFEF91
:100DF80006F017EF07F0298017EF07F0D89016369E
:100E08001736183619362CAE0CEF07F00EEF07F030
:100E18000FEF07F01680D89029362A362B362C3655
:100E28002706D8A0280618AE1CEF07F01EEF07F01B
:100E380002EF07F0000E2E6E2CAE25EF07F027EF1D
:100E480007F04BEF07F0FF0E29141E6EFF0E2A1451
:100E58001F6EFF0E2B14206E7F0E2C14216E1E5059
:100E68001F1020102110D8B43CEF07F03EEF07F018
:100E780042EF07F0010E2E6E4BEF07F016A047EF7A
:100E880007F049EF07F04BEF07F03EEF07F02E5061
:100E9800D8B451EF07F053EF07F077EF07F0010EE2
:100EA8001626000E17221822192219A05EEF07F045
:100EB80060EF07F077EF07F016C01EF017C01FF0BD
:100EC80018C020F019C021F02134213220321F32FD
:100ED8001E321EC016F01FC017F020C018F021C027
:100EE80019F0274A282A28BE82EF07F0285008E17F
:100EF8002728D8A082EF07F084EF07F08FEF07F0DC
:100F0800000E286E2768000E166E000E176E000E73
:100F1800186E000E196E28BE9CEF07F0285006E1E7
:100F28002704D8B09AEF07F09CEF07F0AAEF07F074
:100F3800000E286E000E276E000E166E000E176E3D
:100F4800000E186E000E196E000E266E27C02DF0CA
:100F58002DA0B1EF07F0B3EF07F0B6EF07F0188E4A
:100F6800B7EF07F0189ED8902D30196E6DEF06F088
:100F7800120048BECBEF07F0485007E1040E475C6B
:100F8800D8B0C9EF07F0CBEF07F076EF08F0000113
:100F9800CB51CC11D8B4D3EF07F0D5EF07F0ECEF75
:100FA80007F0000ECC6F000ECB6F010EF7EC12F0BD
:100FB800590E0C6E7F0E0D6E800E0E6EDDEC10F06D
:100FC800C30EF7EC12F00F0EF7EC12F0000E536E92
:100FD800050E5318D8A4F3EF07F0F5EF07F03CEF30
:100FE80008F04750740FD96EDA6ADF6A4750C30FAA
:100FF800086E2A0EDBEC12F00001A451A511D8B43A
:1010080008EF08F00AEF08F027EF08F04750020D44
:10101800F350600FD96EDA6A4750740FE16EE26AD6
:10102800E750146E156ADE50141807E1DE501518E3
:10103800D8A421EF08F023EF08F038EF08F0AA4B06
:10104800AB2B38EF08F04750740FD96EDA6ADF50CF
:10105800126E136A4750020DF350600FD96EDA6AA8
:1010680012C0DEFF13C0DDFF474A482A5EEF09F0D1
:10107800060E5318D8A443EF08F045EF08F05EEFCA
:1010880009F04750740FD96EDA6A010EDF6E4750C7
:10109800C30F086E2A0EDBEC12F00001A451A51153
:1010A800D8B459EF08F05BEF08F027EF08F0475085
:1010B800020DF350600FD96EDA6A4750740FE16E73
:1010C800E26AE750146E156ADE50141807E1DE5024
:1010D8001518D8A472EF08F074EF08F038EF08F08C
:1010E80023EF08F0040E47184810D8A47EEF08F044
:1010F80080EF08F0AAEF08F00001A451A511D8A4C8
:1011080088EF08F08AEF08F0AAEF08F0010EF7EC74
:1011180012F0490E0C6E7F0E0D6E800E0E6EDDEC19
:1011280010F0C30EF7EC12F00F0EF7EC12F0000EF1
:10113800486E000E476E000E0001AB6F000EAA6FDE
:10114800000EA56F010EA46F5EEF09F0040E47189C
:101158004810D8A4B2EF08F0B4EF08F024EF09F073
:101168000001AA51471807E1AB514818D8A4BFEFAE
:1011780008F0C1EF08F024EF09F00C0EF7EC12F0BC
:10118800010EF7EC12F0B30E0C6E7F0E0D6E830E8F
:101198000E6EDDEC10F0CD0E0C6E7F0E0D6EC50ED2
:1011A8000E6EDDEC10F0FA0E166EFF0E176E0F0EB7
:1011B800186E000E196E1606000E175A185A195A8C
:1011C8001650171018101910D8A4EDEF08F0EFEF0B
:1011D80008F0DFEF08F0010EF7EC12F0000E486E91
:1011E800000E476E000E0001AB6F000EAA6F000ED6
:1011F800CC6F010ECB6F010ED06F000EA56F000EE5
:10120800A46F74C007F0640E10EC13F075C007F0FB
:10121800650E10EC13F076C007F0660E10EC13F0B4
:1012280077C007F0670E10EC13F0000E506E000E3A
:101238004F6E0B0E0001AF6F010EB06F5EEF09F03D
:101248000C0EF7EC12F0010EF7EC12F0970E0C6E84
:101258007F0E0D6E800E0E6EDDEC10F0FA0E1A6E1B
:10126800FF0E1B6E0F0E1C6E000E1D6E1A06000E72
:101278001B5A1C5A1D5A1A501B101C101D10D8A49A
:1012880048EF09F04AEF09F03AEF09F0010EF7ECE0
:1012980012F0000E486E000E476E000E0001AB6F94
:1012A800000EAA6F000ECC6F010ECB6F000EA56F5B
:1012B800000EA46F1200000E9DEC11F0536E050E87
:1012C8005318D8B46AEF09F06CEF09F075EF09F01C
:1012D800060E5318D8A473EF09F075EF09F07DEFE7
:1012E80009F0010E3926000E3A223B223C2253C057
:1012F80052F03C503B103A1007E1640E395CD8B00C
:1013080088EF09F08AEF09F013EF0AF05328D8A400
:1013180090EF09F092EF09F013EF0AF0405007E15F
:10132800030E3F5CD8B09BEF09F09DEF09F0B7EFD3
:1013380009F0050E5218D8A4A4EF09F0A6EF09F099
:10134800B7EF09F03D503E10D8B4ADEF09F0AFEF5C
:1013580009F0B3EF09F03F4A402AB7EF09F0000E51
:101368003E6E010E3D6E3F504010D8B4BEEF09F0FE
:10137800C0EF09F0DDEF09F0060E5218D8A4C7EF48
:1013880009F0C9EF09F0DDEF09F03D503E10D8A48F
:10139800D0EF09F0D2EF09F0D7EF09F03F06D8A057
:1013A800400609EF0AF0000E3E6E000E3D6E09EF92
:1013B8000AF0050E5218D8A4E4EF09F0E6EF09F098
:1013C800F5EF09F03D503E10D8A4EDEF09F0EFEF2E
:1013D80009F0F5EF09F0000E3E6E010E3D6E09EFC3
:1013E8000AF0060E5218D8A4FCEF09F0FEEF09F037
:1013F80009EF0AF03D503E10D8B405EF0AF007EFA8
:101408000AF009EF0AF0D7EF09F0000E396E000E66
:101418003A6E000E3B6E000E3C6E000E526E3D5052
:101428003E10D8A41AEF0AF01CEF0AF02EEF0AF0CB
:10143800FB0E0C6E7F0E0D6E800E0E6EDDEC10F046
:10144800E20E0C6E7E0E0D6EC00E0E6EDDEC10F010
:101458003EEF0AF0E20E0C6E7E0E0D6E800E0E6EE2
:10146800DDEC10F0FB0E0C6E7F0E0D6EC00E0E6ED6
:10147800DDEC10F03FC001F040C002F0000E046E39
:10148800140E036E28EC13F0000E01240C6E010EEE
:1014980002200D6E830E0E6EDDEC10F03FC001F0E1
:1014A80040C002F0000E046E140E036E28EC13F018
:1014B800140E01240C6E010E02200D6EC30E0E6E6A
:1014C800DDEC10F03C503B103A1009E1640E395C39
:1014D800D8A071EF0AF073EF0AF0CFEF0AF0000E10
:1014E800396E000E3A6E000E3B6E000E3C6E060E14
:1014F8005218D8A482EF0AF084EF0AF0A2EF0AF09B
:10150800010EF7EC12F0000E506E000E4F6E000E3A
:10151800396E000E3A6E000E3B6E000E3C6E010EE8
:101528000001D06F000E406E000E3F6E000E3E6E42
:10153800000E3D6E000E526ECFEF0AF0050E5218E7
:10154800D8A4A9EF0AF0ABEF0AF0CFEF0AF0010E2A
:10155800F7EC12F03D503E10D8A4B5EF0AF0B7EF03
:101568000AF0BFEF0AF0030E3F244D6E000E402034
:101578004E6EC5EF0AF0040E3F244D6E000E40205B
:101588004E6E000E396E000E3A6E000E3B6E000E67
:101598003C6E96EF0AF01200180E0C6E7F0E0D6E60
:1015A800800E0E6EDDEC10F0000E9DEC11F0536E07
:1015B800050E5318D8B4E3EF0AF0E5EF0AF0EEEFA2
:1015C8000AF0060E5318D8A4ECEF0AF0EEEF0AF072
:1015D800F6EF0AF0010E3926000E3A223B223C2291
:1015E80053C052F03C503B1009E1F40E395C010E37
:1015F8003A58D8B002EF0BF004EF0BF08BEF0BF07A
:101608005328D8A40AEF0BF00CEF0BF08BEF0BF07C
:10161800050E5218D8A413EF0BF015EF0BF04DEF91
:101628000BF0FF0E5424126EFF0E5520136E0001AE
:10163800A051125CA1511358D8A025EF0BF027EF49
:101648000BF04DEF0BF0FF0E5424126EFF0E5520D9
:10165800136EA051121807E1A1511318D8A437EF3F
:101668000BF039EF0BF043EF0BF0000EA16F000EFB
:10167800A06F000E466E000E456E81EF0BF0A04B7A
:10168800A12B0B0E4524456E000E4620466E81EFB9
:101698000BF0060E5218D8A454EF0BF056EF0BF0CF
:1016A80081EF0BF00001A051A111D8A45EEF0BF05F
:1016B80060EF0BF078EF0BF0FF0E5424A06FFF0ED5
:1016C8005520A16FFF0E5424016EFF0E5520026EA7
:1016D800000E046E0B0E036E28EC13F001C045F0EB
:1016E80002C046F081EF0BF0A007D8A0A107F50EC5
:1016F8004524456EFF0E4620466E000E396E000EDC
:101708003A6E000E3B6E000E3C6E000E526E545048
:101718005510D8B492EF0BF094EF0BF00AEF0CF0E1
:1017280045508DEC13F00001B36F45288DEC13F094
:101738000001B46F4550020F8DEC13F00001B56F36
:101748004550030F8DEC13F00001B66F4550040FA0
:101758008DEC13F00001B76F4550050F8DEC13F0B9
:101768000001B86F4550060F8DEC13F00001B96FFA
:101778004550070F8DEC13F00001BA6F200EBB6FB8
:101788004550080F8DEC13F00001BC6F4550090F50
:101798008DEC13F00001BD6F000EBE6F45500A0FAF
:1017A8008DEC13F0126E12500001A26FA36BC00EE5
:1017B800086EA051300FDBEC12F0B30E0C6E0D6A00
:1017C800C20E0E6EDDEC10F0CE0E086EA2C001F057
:1017D800A3C002F0000E046E0A0E036EDAEC11F0DC
:1017E8000150300FDBEC12F0CF0E086EA2C001F0F2
:1017F800A3C002F0000E046E0A0E036E14EC12F081
:101808000150300FDBEC12F012EF0CF0F50E0C6EFD
:101818007F0E0D6EC30E0E6EDDEC10F03C503B10CB
:101828000BE1F40E395C010E3A58D8A01EEF0CF00B
:1018380020EF0CF038EF0CF0010EF7EC12F0000E70
:10184800506E000E4F6E000E396E000E3A6E000E8E
:101858003B6E000E3C6E010E0001D06F000E526E02
:10186800000E4E6E000E4D6E120084EC13F0000E4A
:10187800446E000E436E790E0C6E7F0E0D6E800E58
:101888000E6EDDEC10F0FA0E136EFF0E146E0F0ED6
:10189800156E000E166E1306000E145A155A165AB7
:1018A8001350141015101610D8A45DEF0CF05FEF4C
:1018B8000CF04FEF0CF0290E026E7F0E036E46EC13
:1018C80012F0360E026E7F0E036E46EC12F0545084
:1018D8005510D8B472EF0CF074EF0CF02AEF0DF03D
:1018E800000E1C6E000E1B6EFDEF0CF043508DECCD
:1018F80013F00001B36F43288DEC13F00001B46FAF
:101908004350020F8DEC13F00001B56F4350030FE5
:101918008DEC13F00001B66F4350040F8DEC13F0FB
:101928000001B76F4350050F8DEC13F00001B86F3D
:101938004350060F8DEC13F00001B96F4350070FA9
:101948008DEC13F00001BA6F200EBB6F4350080FE7
:101958008DEC13F00001BC6F4350090F8DEC13F0B0
:101968000001BD6F000EBE6F43500A0F8DEC13F0DF
:10197800126E12500001A26FA36B1B50300F79EC4E
:1019880013F0E20E026E7E0E036E46EC12F0B30EFA
:10199800026E036A46EC12F0200E79EC13F0A2C036
:1019A80001F0A3C002F0000E046E0A0E036EDAEC1A
:1019B80011F00150300F79EC13F0A2C001F0A3C070
:1019C80002F0000E046E0A0E036E14EC12F00150C1
:1019D800300F79EC13F0360E026E7F0E036E46EC74
:1019E80012F00B0E4324436E000E4420446E1B4A33
:1019F8001C2A54501B5C55501C58D8A006EF0DF0FB
:101A080008EF0DF07AEF0CF0C10E0C6E7E0E0D6E25
:101A1800800E0E6EDDEC10F0FA0E176EFF0E186ECB
:101A28000F0E196E000E1A6E1706000E185A195A64
:101A38001A5A1750181019101A10D8A426EF0DF0BA
:101A480028EF0DF018EF0DF030EF0DF0A90E026E33
:101A58007E0E036E46EC12F0000E506E000E4F6EB6
:101A6800010EF7EC12F0010E0001D06F000E526E5D
:101A7800000E4E6E000E4D6E000E446E000E436E4C
:101A88001200106E1050D8B44CEF0DF04EEF0DF060
:101A980070EF0DF00BBE55EF0DF053EF0DF070EF3A
:101AA8000DF008C00CF009C00DF00AC00EF00BC014
:101AB8000FF00C1E0D1E0E1E0F1E0C2A000E0D22FE
:101AC8000E220F220CC012F00DC013F00EC014F03D
:101AD8000FC015F078EF0DF008C012F009C013F030
:101AE8000AC014F00BC015F0085009100A100B10AA
:101AF800D8A481EF0DF083EF0DF08DEF0DF0000EFF
:101B0800086E000E096E000E0A6E000E0B6E1EEFB8
:101B18000EF0960E116E97EF0DF0112AD89015322F
:101B2800143213321232000E12140C6E000E1314FB
:101B38000D6E000E14140E6EFE0E15140F6E0C5062
:101B48000D100E100F10D8A4ACEF0DF0AEEF0DF085
:101B580091EF0DF0BCEF0DF0112A010E1226000EC8
:101B6800132214221522D89015321432133212324D
:101B7800000E12140C6E000E13140D6E000E1414C9
:101B88000E6EFF0E15140F6E0C500D100E100F1068
:101B9800D8A4D1EF0DF0D3EF0DF0B0EF0DF0DBEFDF
:101BA8000DF01106D890123613361436153614BEB9
:101BB800E0EF0DF0E2EF0DF0EAEF0DF0020E11602C
:101BC800E8EF0DF0EAEF0DF0D5EF0DF011B0EFEF03
:101BD8000DF0F1EF0DF0F2EF0DF0149ED8901132E8
:101BE80011C00CF00D6A0E6A0F6A0CC00FF00E6A75
:101BF8000D6A0C6A0C5012120D5013120E5014126A
:101C08000F5015121050D8B40CEF0EF00EEF0EF066
:101C180016EF0EF00BBE15EF0EF013EF0EF016EFE9
:101C28000EF0158E12C008F013C009F014C00AF0A7
:101C380015C00BF01200010EF7EC12F0BCEC12F01C
:101C4800B6EC0EF0010E9DEC11F0536E050E531814
:101C5800D8A431EF0EF033EF0EF046EF0EF000018E
:101C6800D051D8B43AEF0EF03CEF0EF046EF0EF03C
:101C7800000E506E010E4F6E000ED06F000E4E6EAD
:101C8800000E4D6E4F505010D8A44DEF0EF04FEF90
:101C98000EF053EF0EF02DEC02F026EF0EF04F048D
:101CA8005010D8A45AEF0EF05CEF0EF060EF0EF073
:101CB8001EEC04F026EF0EF0020E4F185010D8A4B8
:101CC80068EF0EF06AEF0EF026EF0EF0030E4D18D7
:101CD8004E10D8A472EF0EF074EF0EF078EF0EF0FD
:101CE800D0EC0AF026EF0EF0040E4D184E10D8A4D2
:101CF80080EF0EF082EF0EF086EF0EF039EC0CF06C
:101D080026EF0EF0050E4D184E10D8A48EEF0EF0EB
:101D180090EF0EF094EF0EF05EEC11F026EF0EF05F
:101D2800060E4D184E10D8A49CEF0EF09EEF0EF044
:101D3800A2EF0EF009EC00F026EF0EF0070E4D189A
:101D48004E10D8A4AAEF0EF0ACEF0EF0B0EF0EF0E4
:101D5800BDEC07F026EF0EF05FEC09F026EF0EF071
:101D680007EF00F0544A552A555009E10A0E545C11
:101D7800D8A0C1EF0EF0C3EF0EF0EBEF0EF0000E9F
:101D8800116E0B0E106E10C009F011C00AF075EC40
:101D980012F00B0E1026000E1122115009E1620EEE
:101DA800105CD8A0DAEF0EF0DCEF0EF0C7EF0EF003
:101DB800000E00019F6F580E9E6F000E936F000E6D
:101DC800926FFF0E5424546EFF0E5520556E000E70
:101DD800136E000E126E1250DA0FD96EDA6ADF50E7
:101DE800076E00019E5110EC13F000019E4B9F2BD3
:101DF800124A132A135009E1080E125CD8A007EF03
:101E08000FF009EF0FF0EFEF0EF0000E156E000E59
:101E1800146E49C001F04AC002F0000E046E030EB1
:101E2800036E28EC13F0780E01240E6E010E0220CA
:101E38000F6E14500E24D96E15500F20DA6EDF5035
:101E4800076E00019E5110EC13F000019E4B9F2B72
:101E5800144A152A155009E1020E145CD8A037EF70
:101E68000FF039EF0FF00DEF0FF04BC007F09E5158
:101E780010EC13F000019E4B9F2B12008180819281
:101E8800819481A84AEF0FF04CEF0FF04FEF0FF05D
:101E9800010EC4EF0FF081AA54EF0FF056EF0FF0C8
:101EA80059EF0FF0040EC4EF0FF081AC5EEF0FF0A6
:101EB80060EF0FF063EF0FF0070EC4EF0FF081AE85
:101EC80068EF0FF06AEF0FF06DEF0FF00A0EC4EF36
:101ED8000FF081908182819481A875EF0FF077EFE0
:101EE8000FF07AEF0FF0020EC4EF0FF081AA7FEF28
:101EF8000FF081EF0FF084EF0FF0050EC4EF0FF035
:101F080081AC89EF0FF08BEF0FF08EEF0FF0080E1A
:101F1800C4EF0FF081AE93EF0FF095EF0FF098EF4D
:101F28000FF00B0EC4EF0FF081908192818481A88D
:101F3800A0EF0FF0A2EF0FF0A5EF0FF0030EC4EF24
:101F48000FF081AAAAEF0FF0ACEF0FF0AFEF0FF090
:101F5800060EC4EF0FF081ACB4EF0FF0B6EF0FF040
:101F6800B9EF0FF0090EC4EF0FF081AEBEEF0FF01E
:101F7800C0EF0FF0C3EF0FF00C0EC4EF0FF0FF0E21
:101F8800120031343234386E3850D8A4CEEF0FF006
:101F9800D0EF0FF0DAEF0FF0000E2F6E000E306E5C
:101FA800000E316E000E326E47EF10F02FC033F086
:101FB80030C034F031C035F032C036F0200EEAEFD0
:101FC8000FF0D8903632353234323332E82EE5EF1E
:101FD8000FF03350376E318EFF0E2F16FF0E30166E
:101FE800FF0E3116000E3216960E385E38BE01EF1F
:101FF80010F0FFEF0FF017EF10F03850800A970F2E
:10200800D8B009EF10F00BEF10F00DEF10F0D0EF93
:102018000FF0D8903232313230322F32383E0DEF55
:1020280010F02FEF10F01F0E38641DEF10F01FEFA7
:1020380010F027EF10F0D0EF0FF0D8902F36303691
:102048003136323638063850D8A42DEF10F02FEF3D
:1020580010F021EF10F03750D8B435EF10F037EF0B
:1020680010F03FEF10F0321E311E301E2F6C000EA4
:102078003022312232222FC02FF030C030F031C050
:1020880031F032C032F0120056494557204C4F47C4
:10209800202020202020000000000000444F574E40
:1020A8004C4F4144204C4F472020000000000000C6
:1020B800434C454152204C4F47202020202000000F
:1020C800000000005345542054494D45202020204D
:1020D80020200000000000004348414E47452050A2
:1020E800415353574F524400000000002D3E00005A
:1020F80000000000000000000000000000000000D8
:102108004F4E00475200474E0047310047320047C4
:102118003300473400473500435F00434C005354B5
:10212800004350000600F2A49CEF10F09EEF10F060
:10213800DBEF10F0080ED624D66E000ED720D76E2F
:102148000001804B812B210E801907E14E0E811969
:10215800D8A4B1EF10F0B3EF10F0DAEF10F0000EE2
:10216800816F000E806F4F045010D8B4BEEF10F08E
:10217800C0EF10F0CAEF10F0060E4D184E10D8A49C
:10218800C8EF10F0CAEF10F0DAEF10F05606D8A03A
:10219800570696519711D8B4D4EF10F0D7EF10F036
:1021A800010ED8EF10F0000E966F976BF2945892CC
:1021B80011000E50F7EC12F0000E116E00EF11F046
:1021C8000EC008F011500C240F6E000E0D20106E7A
:1021D8000FC0F6FF10C0F7FFF86A050EF76403D0CA
:1021E8000800F55005D0F6CFE9FFF7CFEAFFEF502A
:1021F800DBEC12F00E2A112A11500C240F6E000E7F
:102208000D20106E0FC0F6FF10C0F7FFF86A050E1C
:10221800F76403D00800F55005D0F6CFE9FFF7CFF3
:10222800EAFFEF500009D8A41CEF11F01EEF11F0DF
:10223800E4EF10F01200900EF66E200EF76E000E0E
:10224800F86E01EE00F010EE9CF00900F5CFEEFFFD
:10225800E550E150FAE1760EF66E260EF76E000EA6
:10226800F86E00EEBFF010EE24F00900F5CFEEFF97
:10227800E550E150FAE1320EF66E270EF76E000EC9
:10228800F86E0900F5CF56F00900F5CF57F000EECB
:1022980060F05F0EEE6AE806FDE100EE39F01D0E13
:1022A800EE6AE806FDE158905892000EF86E0001BB
:1022B8001FEF0EF0000E556E000E546E000E4E6E9F
:1022C800000E4D6EE20E0C6E7F0E0D6E830E0E6EBE
:1022D800DDEC10F0C00E0C6E7F0E0D6EC30E0E6E90
:1022E800DDEC10F0FA0E126EFF0E136E0F0E146E68
:1022F800000E156E1206000E135A145A155A125073
:10230800131014101510D8A48CEF11F08EEF11F0E3
:102318007EEF11F0000E506E000E4F6E090E000198
:10232800AF6F010EB06F010ED06F010EF7EC12F017
:102338001200016E0104D8A4A4EF11F0A6EF11F069
:10234800CCEF11F042EC0FF0516E5128D8B4AFEF3A
:1023580011F0B1EF11F0BFEF11F00001CF51D8B477
:10236800B8EF11F0BAEF11F0BFEF11F0000ECF6F18
:102378005150D9EF11F05128D8A4C5EF11F0C7EF8B
:1023880011F0D8EF11F0010E0001CF6FD8EF11F066
:102398000150D8A4D2EF11F0D4EF11F0D8EF11F01A
:1023A80042EC0FF0D9EF11F0FF0E1200000E066E8E
:1023B800000E056E03500410D8B4E5EF11F0E7EFF6
:1023C80011F00FEF12F0010E076EEFEF11F0D89039
:1023D80003360436072A04AEF4EF11F0F6EF11F0D5
:1023E800EBEF11F0D890053606360350015C045027
:1023F8000258D8A002EF12F004EF12F009EF12F021
:102408000350015E0450025A0580D890043203320A
:10241800072EF6EF11F005C001F006C002F0120019
:1024280003500410D8B41BEF12F01DEF12F041EF67
:1024380012F0010E056E25EF12F0D890033604361F
:10244800052A04AE2AEF12F02CEF12F021EF12F059
:102458000350015C04500258D8A035EF12F037EF52
:1024680012F03BEF12F00350015E0450025AD8906C
:1024780004320332052E2CEF12F001C001F002C025
:1024880002F012005CEF12F002C0F6FF03C0F7FF83
:10249800F86A050EF76403D00800F55005D0F6CFAA
:1024A800E9FFF7CFEAFFEF5079EC13F0024A032A6D
:1024B80002C0F6FF03C0F7FFF86A050EF76403D001
:1024C8000800F55005D0F6CFE9FFF7CFEAFFEF5047
:1024D8000009D8A472EF12F074EF12F048EF12F06E
:1024E8001200000E0D6E000E0C6E09508DEC13F0EC
:1024F8000B6E0BC007F00001925110EC13F00001B5
:10250800924B932B094A0A2A0C4A0D2A0DBE96EFC4
:1025180012F00D5009E10B0E0C5CD8A096EF12F0EA
:1025280098EF12F079EF12F01200076E07C003F06F
:10253800D8900336D8900336C250C30B0310C26E2E
:10254800C282C2B2AAEF12F0ACEF12F0A5EF12F0FD
:10255800C350C4CF03F0046A03C004F0036A031035
:10256800056E0450066E05C001F006C002F01200A8
:1025780096EC13F04DEC13F05EEC13F06EEC13F0E8
:10258800F28EF28C000E076E640E10EC13F0000E43
:10259800076E650E10EC13F0000E076E660E10EC59
:1025A80013F0000E076E670E10EC13F012000B6E9E
:1025B8000850F7EC12F00BC083FF82828290828A67
:1025C800000E0A6E640E096E0906D8A00A060928CC
:1025D80006E10A28D8A4F3EF12F0F5EF12F0E8EFBD
:1025E80012F0829A1200036E03C083FF82928290D7
:1025F800828A000E026E640E016E0106D8A00206E1
:10260800012806E10228D8A40CEF13F00EEF13F00E
:1026180001EF13F0829A1200086E08C0A9FF07C0E4
:10262800A8FFA69EA69CA684F29E550EA76EAA0E8B
:10263800A76EA682F28EA1A824EF13F026EF13F05E
:102648001FEF13F0A198120001500302F3CF05F019
:10265800F4CF06F001500402F3500626025003029C
:10266800F350062605C001F006C002F01200010072
:102678000300010003000100030001000300010141
:1026880030303A30303A30300031313A35343A343B
:102698003400000E946E000E956E380EF7EC12F0B2
:1026A800060EF7EC12F00C0EF7EC12F0010EF7EC38
:1026B80012F01200C08EC09AC088C096C090C08226
:1026C800C094C292C19AC198000EC46E000EC36E27
:1026D800C2801200D58CD59AD58ED586000ED76EBD
:1026E800060ED66EF294F28A1200016E9EA87FEF53
:1026F80013F081EF13F07AEF13F001C0ADFF120071
:10270800949C948E200EAC6E900EAB6E1F0EAF6E26
:102718001200016E01C0A9FFA694A69EA69CA680E1
:0C272800A8501200F00E936E12003C004E
:107EA80000444F574E4C4F4144204C4F47204953B4
:107EB80020454D5054590A0D00444F574E4C4F41E0
:107EC8004420434F4D504C455445440020205553C1
:107ED800455220424C4F434B4544202000205752E6
:107EE8004F4E472050415353574F5244200020458E
:107EF8004E5445522050415353574F52442000206E
:107F080054494D452020202020455620205350001C
:107F18002320202054494D452020204556205350E9
:107F28000023202054494D452045562053500A0D22
:107F38000020202057454C2D434F4D4520544F20BD
:107F48000020454E54455220434E4620505357205A
:107F58000020454E544552204E4557205053572037
:107F680000205741495420464F5220202053454372
:107F780000444F574E4C4F4144494E472E2E2E0039
:107F88002020204D454E552053435245454E002054
:107F980054525920414741494E2E2E2E0054494DE6
:107FA8004520204348414E47454400205053572020
:107FB8004348414E47454400535543434553534670
:107FC800554C4C5900535543434553532E2E2E00C0
:107FD80020415454454D50542000434C41455220B3
:107FE8004C4F470048483A4D4D3A535300454D5081
:077FF8005459002D3E00006A
:020000040020DA
:08000000FFFFFFFFFFFFFFFF00
:020000040030CA
:0E000000FF02011EFF0080FF0FC00FE00F4047
:00000001FF
